:020000040000fa
:080000000002040000000000f2
:020000040000fa
:04000800d003000021
:020000040000fa
:04000c00d00300001d
:020000040000fa
:04001000d003000019
:020000040000fa
:04001400d003000015
:020000040000fa
:04001800d003000011
:020000040000fa
:04001c00d00300000d
:020000040000fa
:04002000d003000009
:020000040000fa
:04002400d003000005
:020000040000fa
:04002800d003000001
:020000040000fa
:04002c00d0030000fd
:020000040000fa
:04003000d0030000f9
:020000040000fa
:040034004403000081
:020000040000fa
:04003800d0030000f1
:020000040000fa
:04003c00d0030000ed
:020000040000fa
:04004000d0030000e9
:020000040000fa
:04004400d0030000e5
:020000040000fa
:04004800fa020000b8
:020000040000fa
:04004c00d0030000dd
:020000040000fa
:04005000d0030000d9
:020000040000fa
:04005400d0030000d5
:020000040000fa
:04005800d0030000d1
:020000040000fa
:04005c00ac030000f1
:020000040000fa
:04006000d0030000c9
:020000040000fa
:04006400d0030000c5
:020000040000fa
:04006800d0030000c1
:020000040000fa
:04006c00d0030000bd
:020000040000fa
:04007000d0030000b9
:020000040000fa
:04007400d0030000b5
:020000040000fa
:04007800d0030000b1
:020000040000fa
:04007c00d0030000ad
:020000040000fa
:04008000d0030000a9
:020000040000fa
:04008400d0030000a5
:020000040000fa
:04008800d0030000a1
:020000040000fa
:04008c00d00300009d
:020000040000fa
:04009000d003000099
:020000040000fa
:0400940082030000e3
:020000040000fa
:04009800d003000091
:020000040000fa
:04009c00d00300008d
:020000040000fa
:0400a000d003000089
:020000040000fa
:0400a400d003000085
:020000040000fa
:0400a800d003000081
:020000040000fa
:0400ac00d00300007d
:020000040000fa
:0400b000d003000079
:020000040000fa
:0400b400d003000075
:020000040000fa
:0400b800d003000071
:020000040000fa
:0400bc00d00300006d
:020000040000fa
:0400c000d003000069
:020000040000fa
:0400c400d003000065
:020000040000fa
:0400c800d003000061
:020000040000fa
:0400cc00d00300005d
:020000040000fa
:0400d000d003000059
:020000040000fa
:0400d400d003000055
:020000040000fa
:0400d800d003000051
:020000040000fa
:0400dc00d00300004d
:020000040000fa
:0400e000d003000049
:020000040000fa
:0400e400d003000045
:020000040000fa
:0400e800d003000041
:020000040000fa
:0400ec00d00300003d
:020000040000fa
:0400f000d003000039
:020000040000fa
:0400f400d003000035
:020000040000fa
:0400f800d003000031
:020000040000fa
:0400fc00d00300002d
:020000040000fa
:04010000d003000028
:020000040000fa
:04010400d003000024
:020000040000fa
:04010800d003000020
:020000040000fa
:04010c00d00300001c
:020000040000fa
:04011000d003000018
:020000040000fa
:04011400d003000014
:020000040000fa
:04011800d003000010
:020000040000fa
:04011c00d00300000c
:020000040000fa
:04012000d003000008
:020000040000fa
:04012400d003000004
:020000040000fa
:04012800d003000000
:020000040000fa
:04012c00d0030000fc
:020000040000fa
:04013000d0030000f8
:020000040000fa
:04013400d0030000f4
:020000040000fa
:04013800d0030000f0
:020000040000fa
:04013c00d0030000ec
:020000040000fa
:04014000d0030000e8
:020000040000fa
:04014400d0030000e4
:020000040000fa
:04014800d0030000e0
:020000040000fa
:04014c00d0030000dc
:020000040000fa
:04015000d0030000d8
:020000040000fa
:04015400d0030000d4
:020000040000fa
:04015800d0030000d0
:020000040000fa
:04015c00d0030000cc
:020000040000fa
:04016000d0030000c8
:020000040000fa
:04016400d0030000c4
:020000040000fa
:04016800d0030000c0
:020000040000fa
:04016c00d0030000bc
:020000040000fa
:04017000d0030000b8
:020000040000fa
:04017400d0030000b4
:020000040000fa
:04017800d0030000b0
:020000040000fa
:04017c00d0030000ac
:020000040000fa
:04018000d0030000a8
:020000040000fa
:04018400d0030000a4
:020000040000fa
:04018800d0030000a0
:020000040000fa
:04018c00d00300009c
:020000040000fa
:04019000d003000098
:020000040000fa
:04019400d003000094
:020000040000fa
:04019800d003000090
:020000040000fa
:04019c00d00300008c
:020000040000fa
:0401a000d003000088
:020000040000fa
:0401a400d003000084
:020000040000fa
:0401a800d003000080
:020000040000fa
:0401ac00d00300007c
:020000040000fa
:0401b000d003000078
:020000040000fa
:0401b400d003000074
:020000040000fa
:0401b800d003000070
:020000040000fa
:0401bc00d00300006c
:020000040000fa
:0401c000d003000068
:020000040000fa
:0401c400d003000064
:020000040000fa
:0401c800d003000060
:020000040000fa
:0401cc00d00300005c
:020000040000fa
:0401d000d003000058
:020000040000fa
:0401d400d003000054
:020000040000fa
:0401d800d003000050
:020000040000fa
:0401dc00d00300004c
:020000040000fa
:0401e000d003000048
:020000040000fa
:0401e400d003000044
:020000040000fa
:0401e800d003000040
:020000040000fa
:0401ec00d00300003c
:020000040000fa
:0401f000d003000038
:020000040000fa
:0401f400d003000034
:020000040000fa
:0401f800d003000030
:020000040000fa
:0401fc00d00300002c
:020000040000fa
:04020000d003000027
:020000040000fa
:04020400d003000023
:020000040000fa
:04020800d00300001f
:020000040000fa
:04020c00d00300001b
:020000040000fa
:04021000d003000017
:020000040000fa
:04021400d003000013
:020000040000fa
:04021800d00300000f
:020000040000fa
:04021c00d00300000b
:020000040000fa
:04022000d003000007
:020000040000fa
:04022400d003000003
:020000040000fa
:04022800d0030000ff
:020000040000fa
:04022c00d0030000fb
:020000040000fa
:04023000d0030000f7
:020000040000fa
:04023400d0030000f3
:020000040000fa
:04023800d0030000ef
:020000040000fa
:04023c00d0030000eb
:020000040000fa
:04024000d0030000e7
:020000040000fa
:04024400d0030000e3
:020000040000fa
:04024800d0030000df
:020000040000fa
:04024c00d0030000db
:020000040000fa
:04025000d0030000d7
:020000040000fa
:04025400d0030000d3
:020000040000fa
:04025800d0030000cf
:020000040000fa
:04025c00d0030000cb
:020000040000fa
:04026000d0030000c7
:020000040000fa
:04026400d0030000c3
:020000040000fa
:04026800d0030000bf
:020000040000fa
:04026c00d0030000bb
:020000040000fa
:04027000d0030000b7
:020000040000fa
:04027400d0030000b3
:020000040000fa
:04027800d0030000af
:020000040000fa
:04027c00d0030000ab
:020000040000fa
:04028000d0030000a7
:020000040000fa
:10040000ef0321000eff2c000e0188000000000009
:10041000000020000000e000020032000001200087
:100420002002880014000700df0007000000e00041
:1004300003003a00a0122100010020000200370052
:100440000000200001002000810f70000100320038
:100450000f000700000020000000e0000200320052
:10046000000002000000000062070200000000001f
:100470000040da000000fe00200020000000e00044
:1004800002003200100020009001880000000600e9
:10049000a1028800800478000000eb001f003700f4
:1004a000e284440054a0b4009905ba00e2844400f8
:1004b00054a0b4009906ba00e284440054a0b400e9
:1004c0000006eb00476fde00fd07b200ae018800ba
:1004d000636ce10003003a000ad801000000eb0061
:1004e0000e003700606ce10008003a00004deb00a0
:1004f0000a05e800020039003420ec000af0a000f0
:100500008b05e900f9ff3e00040037006168e10057
:10051000010032000086eb000b00070019c7ba008b
:100520000e04e0001905ba0003003a000a00e000da
:10053000dbff3a0000000600fe07b200ae028800b2
:100540008a047800f5ff37000cd0a300e20f4d00bd
:100550001c00390089027800354dba000a05e80010
:10056000020039003420ec000af0a0008b05e900fd
:100570000f003200254dba000a05e80002003900dc
:100580003420ec000af0a0008b05e90008003200de
:100590000c00e0000600320015cdba000a05e800a4
:1005a000020039003420ec000af0a0008b05e900bd
:1005b0008984e80054a0b4000b00e000e2ff3a0098
:1005c000000006009902ba00055d78008b05e9007d
:1005d000f7ff3200c82ade00055d78008b05e900d0
:1005e000f3ff32000c00e000f1ff320019ddba0029
:1005f000eeff37003600f800809fbe00829fbe00ed
:10060000849fbe00869fbe000000fa000108a9007a
:1006100004d0bf000004e0000b003a0062c0b30049
:1006200000002000011a2400fb05070012c0b300df
:1006300000002000011a2400f705070010c0b300d5
:1006400004f0b7000900370062c0b30000002000ca
:10065000011a2c00f005070012c0b30000002000b2
:10066000011a2c00ec0507000470ef000080fa006e
:100670004f03be004f02be004f01be004f00be0040
:100680003600f900004006003600f800809fbe00ea
:10069000829fbe00849fbe00869fbe000000fa00bd
:1006a0000068a9002173800000082000008060001d
:1006b00000f0a7000000ea000000e9004f00de00a3
:1006c000004078000080fb00610060004700dd0012
:1006d000217380000170a100010070002073880068
:1006e00022050700a00607000080fa004f03be00a5
:1006f0004f02be004f01be004f00be003600f900a1
:10070000004006003600f800809fbe00829fbe00b9
:10071000849fbe00869fbe000000fa000368a90007
:10072000008080001180800061004000e08048006f
:100730000080880011808800750207000080fa00a0
:100740004f03be004f02be004f01be004f00be006f
:100750003600f90000400600801f78000000fa0013
:1007600001a8a90000188000c0818800101880002e
:100770009081880020188000a081880030188000b7
:10078000d081880040188000b081880010c0b3007c
:100790000bf0b7000080fa004f0078000040060020
:1007a0000040da000000fe000000050003f0a20097
:1007b000889fbe008a9fbe008c1f78001b01070027
:1007c000220133006450e1004f0032006420e10058
:1007d0005200320003826c0007003b000905d00084
:1007e0000306d000820f54000c065d0002003900a1
:1007f00002003200890178000306780085825500e6
:1008000004003d000003fd008103fd008502ea00b5
:100810008b854200840f720002003b0060001000d4
:10082000e08018006011b8000005eb007a28e100b4
:100830000a00390006007800c75ddd00f707b20046
:10084000878075002d003700828171000a017800d1
:10085000610560008180d1000080d3008502e9003d
:10086000f9ff3b00060440008784480002003b007b
:1008700060041400e0841c000988a3000700320013
:100880008a81710082817100610164008904d10054
:100890000884d3008b05e800170037000978a3000f
:1008a00013003a000b00e000130034008b05e90050
:1008b0000804440089844c000a4474000978a300a9
:1008c0000d003a000b00e000070034008b05e90042
:1008d0000804440089844c0001003a000b00200009
:1008e0000978a300f7ff32000001eb000200370097
:1008f000828171000a017800910007000cf0a700c6
:1009000001f0a000da0037006420e10002003a00a4
:10091000838f6c00da0033000801be000200be00c5
:10092000d3003700889fbe008a9fbe008c1f7800ce
:10093000be000700c500330003866c006450e10070
:100940002e0032006420e100330032006150e100eb
:100950002f0032006120e100310032008585550012
:10096000eb07b00009002000080420000500370054
:100970000804440089844c000a0031000603430047
:1009800087834b000001530081815b00f8ff330037
:100990000203be000800a0000804440089844c0043
:1009a000f6ff3900c639dd00830173000100320013
:1009b000130020008904d1000884d3000998a30003
:1009c000050032000800a7000300a0008904d10040
:1009d0000884d3008b05e8008904d1000884d30083
:1009e0000001eb000281d2005500070001f0a100d8
:1009f0000cf0a70001f0a0009d0037006420e1008a
:100a00009f0032000801be000200be00f7ff370061
:100a10006120e1009a0032006000b800f3ff370067
:100a20000000200001f82700f0ff3700140020002c
:100a3000ca003700f4ff2f00c80037000001be00d5
:100a4000650007000470a70003f0a1006509b1006c
:100a5000160032000d0035006828e1000600350060
:100a6000f0ff2f00f1ff27000300e00013003b0020
:100a700001002800000005000000400081804800bf
:100a80008502e900fcff3a0008003700f88f4200b9
:100a900002003c008000eb00000005008100d10056
:100aa0000080d3008502e800fcff3a000300e0006c
:100ab00002003b0060001000e0801800000006000b
:100ac0000001be00440007000470a70003f0a1006d
:100ad00003f8a30013003a006509b10010003200ca
:100ae000090035006928e1000200350001002800f6
:100af0000000050000004000818048008502e900f8
:100b0000fcff3a0000000600f88f420005003500a7
:100b10008100d1000080d3008502e800fcff3a008c
:100b2000000006008000eb00000005004f89de0099
:100b300082017800a40037006011b800b2003700cd
:100b400081002000618055000b003d000b0020005b
:100b500061fe2f000100e1001d0034008281710060
:100b6000610164008904d1000884d3000000e8001a
:100b7000faff3a0071002000610064000300700079
:100b8000020060000900320061044400e0844c006f
:100b90000988a500050032008b05e8006808e1001f
:100ba00002003a008904d1000884d300f20f20002b
:100bb0000258e10005003d00c75ddd00f907b20005
:100bc0008980750008007800000006000bf82700f7
:100bd0008b00780000000500c70ade00f107b200b4
:100be000f50fb20008003200e1cf420002003200ef
:100bf0000170a00024000500810f70000100320088
:100c00000408050044000500810f700002003a004e
:100c1000140005008502e9000000400081c0480082
:100c2000fcff3b000170a000240005000004be0092
:100c3000e9ff07000003be000405be000200be007d
:100c4000e5ff0700844f7500000006000200be00ab
:100c50006450e100050036006420e1000200360027
:100c60000968a30001003a000800be000160a0006e
:100c70004f0678004f05be004f04be00000006007e
:100c8000f0ff2f00f1ff2700f9ff3700889fbe001b
:100c90008a9fbe008c1f7800e4ff0700ebff330043
:100ca00003866c006450e100240032006420e100ff
:100cb000270032006150e100220032006120e10093
:100cc000210032008b854200eb07b1000134b800ef
:100cd000003ab8000804420089844a00013ab8008a
:100ce0000030b8008880400009014a000400330049
:100cf0000000400081804800020149008b05e900a6
:100d0000c909dd00830170000100320013002000da
:100d1000c814de004814dd004709de001200b200ee
:100d2000c808de000884700085ff070001f0a100fc
:100d30000cf0a70001f0a000cdff37006120e1001a
:100d4000cfff32000801be000200be00f7ff3700ef
:100d50006150e100fcff3a00c9ff3700889fbe00e8
:100d60008a9fbe00841f7800b0ff07004f00780004
:100d700011003300f0ff2f00838f6c0006003b0052
:100d8000040565000a00a7000800370009f0a60066
:100d90001000200008003700820f5400838f5c0091
:100da000030039001000200001003e000000200078
:100db00009f0a7000000ea004f05be004f04be0086
:100dc0000000e00000000600881f7800030478009f
:100dd0000300e00007003d0060001000e080180004
:100de00060011900e081190002003b0001f02d00b4
:100df000030037000400070008f0a70001f0a0007e
:100e00004f04780000000600889fbe008a9fbe0045
:100e1000008270000402710004827100260032001a
:100e20000004be000200be006011b8006b09200083
:100e3000950220000182cf000a0039000541b1006f
:100e40000082cf00070039000541b1000982cf00c0
:100e5000040039000541b1000882cf0001003900cb
:100e60000541b10005425200120032000a003b0069
:100e700082817100610164008100d1000080d30093
:100e80008984d3000884d3008b05e8000442e8007d
:100e9000f7ff3a00070037000804440089844c003b
:100ea00000004800818048008b05e9000442e90009
:100eb000f9ff3a0022ff07004f05be004f04be00b5
:040ec0000000060028
:020000040000fa
:100ec4000600fa00b7040700f504070064cea90081
:100ed40064eea900254ea900090207008702070055
:100ee4006604070004030700010037000000000047
:100ef400a40407000004e000fcff3200a50407007e
:100f04009c040700000f78001e0078001000780091
:100f14008000eb0007ff0700323323003305240071
:100f240059ff070002002000035824007cfe07003c
:100f3400d2cc2c00c304240053ff070010079800f0
:100f4400210798001e019000ae01900000002000cf
:100f54008120240072fe070002002000030a2400fe
:100f640011fe0700f0808800018188001e80e800df
:100f7400100078008000eb00eefe070032332300ff
:100f84003305240040ff070002002000035824001a
:100f940063fe0700d2cc2c00c30424003aff0700f0
:100fa40010079800210798001e019000ae019000e0
:100fb400000020008120240059fe070002002000c8
:100fc400030a2400f8fd07001081880021818800ad
:100fd4009e00780064804000100078008000eb00e0
:100fe400d4fe0700323323003305240026ff070014
:100ff400020020000358240049fe0700d2cc2c0034
:10100400c304240020ff070010079800210798005c
:101014001e019000ae0190000000200081202400f9
:101024003ffe070002002000030a2400defd070043
:1010340030818800418188009e00780066804000ed
:10104400100078008000eb00bafe07003233230062
:10105400330524000cff070002002000035824007d
:101064002ffe0700d2cc2c00c304240006ff070087
:1010740010079800210798001e019000ae0190000f
:10108400000020008120240025fe0700020020002b
:10109400030a2400c4fd0700508188006181880090
:1010a4009e00780068804000100078008000eb000b
:1010b400a0fe07003233230033052400f2fe0700ac
:1010c400020020000358240015fe0700d2cc2c0097
:1010d400c3042400ecfe07001007980021079800c1
:1010e4001e019000ae019000000020008120240029
:1010f4000bfe070002002000030a2400aafd0700db
:10110400708188008181880079ff37000000fa002f
:1011140006d0bf000080fb00cf80de00120120005b
:1011240003002000820f5000838f580073003e009c
:1011340000060100110037001a00370023003700b1
:101144002d0037002e0037003700370038003700f5
:1011540041003700420037004c0037004d00370093
:10116400570037006500370064003700630037001c
:1011740062003700540037005e0037000030ef0093
:101184000230ef0062c0b3006000b8002103070022
:1011940012c0b3006000b8001e03070010c0b30003
:1011a40006f0b7000280800013808000803e20009b
:1011b40001002000800f5100818f59005200360039
:1011c40020c0b30006f0b7005000370062c0b3007f
:1011d40000002000811c24000e03070012c0b3008d
:1011e40000002000811c24000a03070030c0b30063
:1011f40006f0b700450037004600070043003700fb
:1012040062c0b30000002000011a2400010307009b
:1012140012c0b3006000b800fe02070050c0b30063
:1012240006f0b700390037003a00070037003700ee
:1012340062c0b3006000b800f602070012c0b30039
:1012440000002000011a2400f202070070c0b3005d
:1012540006f0b7002d0037002e0007002b003700e2
:1012640062c0b3000000200001172400e902070057
:1012740012c0b3000000200001172c00e502070093
:1012840090c0b30006f0b70020003700210007002b
:101294001e00370062c0b3000000200001172c00bc
:1012a400dc02070012c0b300000020000117240074
:1012b400d8020700b0c0b30006f0b700130037002f
:1012c400140007001100370062c0b30000002000c2
:1012d400011f2400cf02070012c0b3000000200049
:1012e400011a2400cb02070010c1b30006f0b700b6
:1012f4000600370007000700040037000670ef00ff
:101304000000000001003700000000000080fa0027
:10131400000006000200fa00881f78000040eb007d
:10132400004f7800f08080000181800018c0b30075
:1013340002002000831c2400bbfd07000000e00025
:10134400010035000044eb000804e00019003200fd
:10135400108180002181800018c0b30002002000a9
:10136400031a2400b2fd07000000e00001003c0065
:101374000044eb000804e0000e00320030818000dd
:101384004181800018c0b30002002000031f240024
:10139400a7fd07000000e00001003c000044eb0052
:1013a4000804e0000300320020c0b300004f7800be
:1013b40055003700f08080000181800018c0b30020
:1013c40002002000031f240099fd07000000e00034
:1013d40001003c000044eb000804e0001900320066
:1013e400108180002181800018c0b3000200200019
:1013f400031a24008efd07000000e00001003c00f9
:101404000044eb000804e0000e003200308180004c
:101414004181800018c0b30002002000831c240016
:1014240081fd07000000e000010035000044eb00ee
:101434000804e0000300320010c0b300004f78003d
:1014440031003700108180002181800018c0b30072
:1014540002002000031f240073fd07000000e000c9
:10146400010035000044eb000804e00003003200f2
:1014740030c0b300004f780023003700f0808000b4
:101484000181800018c0b30002002000c3202400a2
:1014940067fd07000000e00001003c000044eb0091
:1014a4000804e000180032001081800021818000cf
:1014b40018c0b30002002000031a24005cfd0700da
:1014c4000000e00001003c000044eb000804e000e0
:1014d4000d003200308180004181800018c0b300cb
:1014e40002002000031f240051fd07000000e0005b
:1014f40001003c000044eb000804e000020032005c
:101504000040eb00004f7800508180006181800032
:1015140018c0b300020020000317240042fd070096
:101524000000e000010035000044eb000804e00086
:101534000200320040c0b300004f78007081800088
:101544008181800018c0b30002002000031724002a
:1015540035fd07000000e000010035000044eb0009
:101564000804e0000200320040c0b300004f7800dd
:10157400508180006181800018c0b3000200200007
:10158400031724002afd07000000e00001003c00ce
:101594000044eb000804e00002003200254ea800dd
:1015a40001003700254ea9007081800081818000f0
:1015b40018c0b30002002000031724001cfd07001c
:1015c4000000e00001003c000044eb000804e000df
:1015d4000200320064cea8000100370064cea900e6
:1015e4001e4078000004e00003003a0020c0b3006d
:1015f40007f0b7001d0037001e407800e24f50008e
:1016040003003a0040c0b30007f0b70017003700ea
:101614001e407800e14f500003003a0060c0b30060
:1016240007f0b700110037001e407800e34f500068
:1016340003003a0080c0b30007f0b7000b00370086
:101644001e407800e44f500003003a0080c0b3000d
:1016540007f0b700050037001e407800e44f500043
:1016640002003a00a0c0b30007f0b70007d0bf00e3
:101674008080fb0006d0bf000080fb000000e90072
:10168400808f50000200320007d0bf0006f0b70080
:101694004f0478000080fa00000006000000fa0001
:1016a40013e1a90011e1a9001061a8001021a9000b
:1016b40081088000f0fc2f00008060008008880012
:1016c4000a21ef000621ef00202620007008880080
:1016d40000a02500600888002142800080ff2f00c0
:1016e400008060000000a000204288000108a900da
:1016f4002108a80011e1a8000080fa0000000600fb
:101704000000fa0005e1a9000421a9000068a9006d
:101714002068a80005e1a80000002000812424001e
:10172400020007000080fa00000006000400fa002e
:10173400881f7800008fbe0021088000f0fc2f0075
:1017440000806000200888001e0178009e0190003f
:101754000068290081c1240071fc070018c0b3008f
:1017640002f02f00f3772400b1fc07000000e00032
:1017740001003c000044eb000804e0005400320087
:1017840021088000f0fc2f00008060000040a000d1
:10179400200888001e0178009e019000006829003e
:1017a40081c124005efc0700020020000310240015
:1017b4005bfc070018c0b30002f02f00f37724008d
:1017c4009bfc07000000e00001003c000044eb002b
:1017d4000804e0003200320021088000f0fc2f00f1
:1017e400008060000050a000200888001e017800de
:1017f4009e0190000068290081c1240048fc070074
:10180400020020000328240045fc070018c0b30090
:1018140002f02f00f377240085fc07000000e000ad
:1018240001003c000044eb000804e000100032001a
:1018340021088000000320000100700020088800b7
:101844001e0178009e0190000068290081c12400d7
:1018540033fc0700020020000338240030fc07009a
:1018640075fc07000000780010088800200037008d
:101874001e0178009e0190000068290081c12400a7
:1018840027fc0700020020000328240024fc070092
:1018940069fc070000007800100888001400370075
:1018a4001e0178009e0190000068290081c1240077
:1018b4001bfc0700020020000310240018fc070092
:1018c4005dfc07000000780010088800080037005d
:1018d4001e0178009e0190000068290081c1240047
:1018e4000ffc070054fc0700000078001008880073
:1018f4004f0478000080fa00000006000000fa009f
:101904001fe1a9001e21a9000368a9002368a800fb
:101914001fe1a80000002000a147240002000700e6
:101924000080fa00000006000400fa00881f780016
:10193400008fbe0021088000f0fc2f0000806000b2
:10194400200888001e0178009e019000006829008c
:1019540081c12400f2fb070018c0b30002f02f007d
:10196400f377240032fc07000000e00001003c0093
:101974000044eb000804e000540032002108800019
:10198400f0fc2f00008060000040a00020088800c8
:101994001e0178009e0190000068290081c1240086
:1019a400dffb07000200200003102400dcfb07001b
:1019b40018c0b30002f02f00f37724001cfc0700ca
:1019c4000000e00001003c000044eb000804e000db
:1019d4003200320021088000f0fc2f0000806000fb
:1019e4000050a000200888001e0178009e0190008d
:1019f4000068290081c12400c9fb070002002000ff
:101a040003282400c6fb070018c0b30002f02f000f
:101a1400f377240006fc07000000e00001003c000e
:101a24000044eb000804e0001000320021088000ac
:101a34000003200001007000200888001e017800c7
:101a44009e0190000068290081c12400b4fb0700b6
:101a54000200200003382400b1fb0700f6fb070056
:101a64000000780010088800200037001e0178006c
:101a74009e0190000068290081c12400a8fb070092
:101a84000200200003282400a5fb0700eafb07004e
:101a94000000780010088800140037001e01780048
:101aa4009e0190000068290081c124009cfb07006e
:101ab400020020000310240099fb0700defb07004e
:101ac4000000780010088800080037001e01780024
:101ad4009e0190000068290081c1240090fb07004a
:101ae400d5fb070000007800100888004f04780038
:101af4000080fa00000006000000fa001160800077
:101b040080ff2f00008060001060880000712200b8
:101b14002060880023aca800238ca80011618000f9
:101b2400f03f2f000080600000a0a000106188003a
:101b34003000200020618800c3aca800c38ca8003a
:101b440011668000f03f2f000080600000a0a0001c
:101b540010668800300020002066880001eca80090
:101b64000080fa00000006000000fa00889fbe0012
:101b74008a9fbe00d4808000e5808000b080800011
:101b8400c180800018c0b3000001be000400be0084
:101b9400a5fb07000000e000010035000044eb0055
:101ba4000804e0000f003200b8808000c980800083
:101bb400da808000eb80800008d0bf000080fb004a
:101bc400cf80de00d8fb07000001be000a00be0083
:101bd400f6fa07000801be00cf000700d080880095
:101be400e1808800d4808000e5808000b08080009f
:101bf400c180800018c0b3000001be000400be0014
:101c04008bfb07000000e00001003c000044eb00f7
:101c14000804e0000f003200b8808000c980800012
:101c2400da808000eb80800008d0bf000080fb00d9
:101c3400cf80de00bcfb07000001be000a00be002e
:101c4400d9fa07000801be009b000700d080880075
:101c5400e1808800d0808000e180800018c0b3005b
:101c64006011b80070fb07000000e00001003500bf
:101c74000044eb000804e00004003200c3cca900d7
:101c840024eea800c3eca80003003700c3eca900ad
:101c940024cea800c3cca800d0808000e1808000be
:101ca4006f00070002002000832c2400f6fb0700cd
:101cb40082fb070000007800306688009480800072
:101cc400a5808000708080008180800018c0b300ef
:101cd4000001be000400be0053fb07000000e0004a
:101ce400010035000044eb000804e0000f0032005e
:101cf40078808000898080009a808000ab8080009a
:101d040008d0bf000080fb00cf80de0086fb070008
:101d14000001be000a00be00a4fa07000801be00cc
:101d24007d00070090808800a18088009480800056
:101d3400a5808000708080008180800018c0b3007e
:101d44000001be000400be0039fb07000000e000f3
:101d540001003c000044eb000804e0000f003200e6
:101d640078808000898080009a808000ab80800029
:101d740008d0bf000080fb00cf80de006afb0700b4
:101d84000001be000a00be0087fa07000801be0079
:101d94004900070090808800a1808800908080001e
:101da400a180800018c0b3006011b80020fb0700b8
:101db4000000e00001003c000044eb000804e000e7
:101dc4000400320023cca90015eea80023eca800df
:101dd4000300370023eca90015cea80023cca800eb
:101de40090808000a18080001d0007000200200078
:101df400832c2400a4fb070030fb070000007800bc
:101e0400306188004f05be004f04be000080fa0018
:101e1400000006000600fa00008fbe00424798004a
:101e24004e409000e14f500004003a001e0178003b
:101e34009e01900072808800838088004e4090004c
:101e4400e64f500004003a001e0178009e01900005
:101e5400b2808800c38088000080fa000000060079
:101e64000400fa00881f7800008fbe0018c0b30079
:101e74006011b8001e0078009e009000ecfa070084
:101e84000000e00001003d000044eb000804e00015
:101e9400030032001e0078009e009000030037000b
:101ea4001e0078009e00900001f0a2004f0478000c
:101eb4000080fa00000006000800fa00881f78007d
:101ec400008fbe00220798003307980018c0b300a3
:101ed4002e019000be0190001e0078009e0090002c
:101ee400d3fa07000000e00001003c000044eb00ce
:101ef4000804e000030032001e0078009e009000f9
:101f0400020037002e009000be0090004f047800bd
:101f14000080fa00000006000800fa00881f78001c
:101f2400008fbe00220798003307980018c0b30042
:101f34002e019000be0190001e0078009e009000cb
:101f4400b9fa07000000e000010035000044eb008e
:101f54000804e000030032001e0078009e00900098
:101f6400020037002e009000be0090004f0478005d
:101f74000080fa00000006000c00fa00881f7800b8
:101f8400008fbe002207980033079800440798008a
:101f94005507980018c0b3004e019000de01900070
:101fa4001e0078009e009000a1fa07000000e000e7
:101fb40001003c000044eb000804e000040032008f
:101fc4004e019000de019000028fbe000e0037002b
:101fd40018c0b3002e019000be0190001e007800ce
:101fe4009e00900090fa07000000e0000100350018
:101ff4000044eb000804e000030032002e019000ce
:10200400be019000028fbe001e0078009e0090006a
:102014004f0478000080fa00000006000400fa0073
:10202400008fbe00b2fd2000930424001e0078003f
:102034009e0090003afa0700020020004333240077
:1020440011fb07000080fa00000006000400fa00fb
:10205400008fbe00b2fd2000930424001e0078000f
:102064009e00900008fb0700020020004333240078
:102074002bfa07000080fa00000006000000fa00b6
:1020840021e3a9002143a80001198000f0cf2f000b
:1020940000806000001988002043a9000119800015
:1020a400000e200001007000001988001119800042
:1020b400f0ff210000806000101988002343a8006d
:1020c40011198000f0cf2f000080600010198800e3
:1020d4001119800030f82f00008060000040a0003b
:1020e400101988002203a9002223a90025e3a900ce
:1020f400f0c0b30024e3b70021198000f00f2e00d4
:102104008080600000f02000010070002019880029
:102114003303a9001e2ea8002e0ea8002f6ea800bf
:102124004feea8006f2ea8003063a80030c3a800ab
:102134003163a80031e3a8002e03a80041198000f0
:1021440000fc2f00008060004019880028e3a900eb
:1021540001a8a90021a8a80021e3a8000080fa0092
:10216400000006000000fa002023a8000080fa0006
:10217400000006000000fa00200321000080fa009d
:10218400000006000000fa000bd0bf000080fa0037
:10219400000006000000fa000b70ef000080fa0057
:1021a400000006000000fa00f0032000303a880026
:1021b400213a8000f0f32f0000806000203a88006c
:1021c400213a800000fe2f00008060000000a00083
:1021d400203a88001200200080072000a109200076
:1021e400337420008049780081497800824978005e
:1021f400103a8000000178000200a0006004200072
:1022040071052000237420008049780081497800fa
:102214008249780000000000113a80000000270085
:102224008080600000002100808f5000faff3a0097
:1022340000000000113a80000002200000806000cd
:102244000000e000fbff32000080fa0000000600fe
:020000040000fa
:1022540006100000020000008000000000100000d2
:1022640006000000800000000c10000026000000a2
:10227400800000000810000002000000820000003e
:1022840001000000321000000c000000800000007b
:102294000a1000000200000080000000000000009e
:020000040000fa
:1022a4000000fa000e2eef001e2eef002e2eef007f
:1022b4003e2eef004e2eef005e2eef006e2eef004e
:1022c400214ea90060cea90060eea90011cea9009c
:1022d40011eea90020cea90020eea9000080fa008a
:0422e40000000600f0
:020000040000fa
:02000004000af0
:04afe000cfff00009f
:020000040000fa
:02000004000af0
:04afe400ffff00006b
:020000040000fa
:02000004000af0
:04afe8007fff0000e7
:020000040000fa
:02000004000af0
:04afec005fff000003
:020000040000fa
:02000004000af0
:04aff00038ff000026
:020000040000fa
:02000004000af0
:04aff400ffff00005b
:00000001FF
